:02000002B0004C
:1040000000400B001E530B00000006000C000502D0
:084010000401B61400000000D9
:0440180044500B0005
:10401C00034613F8012B002AFBD1181A01387047FC
:10402C0009480A49884208B505D0094A824202D09B
:10403C00121A00F057FF0748074A0021121A00F025
:10404C005FFF014808BD00BF40E6032084520B000F
:10405C00ACE60320ACE60320F0E7032070B5074E76
:10406C00074C00F00BFEA41BA4080025AC4200D1A9
:10407C0070BD56F8043B98470135F7E73C520B00EE
:10408C0060520B0000F013B808B500F021F8BDE841
:10409C00084000F0ABBD00F00BBA00F011BA00788C
:1040AC00B0FA80F04009704701230370704708B5DF
:1040BC0000F0ECFE4FF4165100F0B4FC0121052089
:1040CC0000F04CFEBDE808400021032000F046BE85
:1040DC0013B500F0DBFE03681B699847002834DD3C
:1040EC0000F0D4FE03685B699847C4B200F0F8FC9A
:1040FC000A22214600F0F5FB302C06D100210520C8
:10410C0002B0BDE8104000F03ABE312C01D10121C3
:10411C00F5E73F2C19D1032000F04AFE044600F0CD
:10412C00B5FE211E18BF01210A22019100F0D9FB16
:10413C0000F0D6FC01990A22044600F0D2FB20467E
:10414C0002B0BDE8104000F0C0BB02B010BD0000D2
:10415C0010B5074B074A9A600024C3E900440320BA
:10416C0000F01AF921460120BDE8104000F01CB9FE
:10417C00ACE603200000FFFF08B5024B1B685B6C2C
:10418C00019308BD4802030008B5024B1B685B682D
:10419C00019308BD1802030008B5024B1B685B694C
:1041AC00019308BD1802030008B5024B1B689B68FD
:1041BC00019308BD2C02030008B5024B1B68DB6899
:1041CC00019308BD2C02030008B5024B1B681B6948
:1041DC00019308BD2C02030008B5024B1B685B69F8
:1041EC00019308BD2C02030008B5024B1B681B6A27
:1041FC00019308BD2802030008B5024B1B685B6ADB
:10420C00019308BD2802030008B5024B1B689B6A8A
:10421C00019308BD2802030008B5024B1B68DB6A3A
:10422C00019308BD2802030008B5024B1B681B6BE9
:10423C00019308BD2802030008B5024B1B685B6B99
:10424C00019308BD2802030008B5024B1B681B6CC8
:10425C00019308BD2802030008B5024B1B685B697B
:10426C00019308BD6402030008B5024B1B689B68F0
:10427C00019308BD6802030008B5024B1B68DB689C
:10428C00019308BD6802030008B5024B1B68DB698B
:10429C00019308BD3002030008B5024B1B681B6A72
:1042AC00019308BD3002030008B5024B1B68DB68A4
:1042BC00019308BD3C02030008B5024B1B681B6947
:1042CC00019308BD3C02030008B5024B1B685B69F7
:1042DC00019308BD3C02030008B5024B1B689B69A7
:1042EC00019308BD3C02030008B5024B1B68DB6957
:1042FC00019308BD3C02030008B5024B1B681B6A06
:10430C00019308BD3C02030008B5024B1B689B6A75
:10431C00019308BD3C02030008B5024B1B68DB6A25
:10432C00019308BD3C02030008B5024B1B681B6CD3
:10433C00019308BD3C02030008B5024B1B681B68C7
:10434C00019308BD4C02030008B5024B1B681B69A6
:10435C00019308BD4C02030008B5024B1B685B6956
:10436C00019308BD4C02030008B5024B1B689B6906
:10437C00019308BD4C02030008B5024B1B68DB69B6
:10438C00019308BD4C02030008B5024B1B681B6A65
:10439C00019308BD4C02030008B5024B1B685B6817
:1043AC00019308BD2002030008B5024B1B68DB6AB1
:1043BC00019308BD2002030008B5034B1B68D3F81A
:1043CC008830019308BD00002002030008B5034BA0
:1043DC001B68D3F89430019308BD00002002030041
:1043EC0008B5024B1B68DB6B019308BD440203004C
:1043FC0008B5024B1B685B68019308BD40020300C3
:10440C0008B5024B1B689B68019308BD4002030072
:10441C0008B5024B1B68DB68019308BD4002030022
:10442C0008B5024B1B681B69019308BD40020300D1
:10443C0008B5024B1B685B69019308BD4002030081
:10444C0008B5024B1B689B69019308BD4002030031
:10445C0008B5024B1B68DB69019308BD40020300E1
:10446C0008B5024B1B681B6A019308BD4002030090
:10447C0008B5024B1B681B6B019308BD400203007F
:10448C0008B5024B1B685B6B019308BD400203002F
:10449C0008B5024B1B681B6C019308BD400203005E
:1044AC0008B5024B1B685B6C019308BD400203000E
:1044BC0008B5024B1B681B68019308BD1C02030066
:1044CC0008B5024B1B685B68019308BD1C02030016
:1044DC0008B5024B1B681B6C019308BD1C02030042
:1044EC0008B5024B1B685B6C019308BD1C020300F2
:1044FC00024800230360FFF73FBE00BFB8E603206D
:10450C00002240681146FFF7ABBF002240681146FD
:10451C00FFF7B6BF40680022FFF7AABF4068002231
:10452C0081F00101FFF794BF002340681A46194639
:10453C00FFF786BF002340681A461946FFF778BF7D
:10454C00002240681146FFF76BBF002240681146FD
:10455C00FFF756BF406800220221FFF759BF002326
:10456C0040681A46FFF744BF024B03225A60024AC6
:10457C001A607047BCE6032060500B007047F8B51A
:10458C00064615460C468F18BC4206D0336814F804
:10459C00011B9B6830469847F6E72846F8BD007C1F
:1045AC000022FFF721BE007C0021FFF725BE007C16
:1045BC000021FFF729BE007C0021FFF72DBE007CF7
:1045CC000021FFF731BE10B514210446FFF765FD3D
:1045DC00204610BD38B5044615464FF47A730022B8
:1045EC00C4E90123094B2174084623602946FFF7CF
:1045FC002BFEBF3008D16B69DB0705D56868FFF768
:10460C005FFFE868FFF75CFF204638BD9C500B004D
:10461C00704710B518210446FFF73FFD204610BD2A
:10462C00F0B5037D062B8DB00E4600F104074FF05C
:10463C00000412D000F1080515F8011D0A223046BD
:10464C0000F04FF9AF42044419D0002CF4D02E21C5
:10465C00304600F037F90444EEE72F236A4639461A
:10466C000A208DF80040FFF7F7FD6846FFF7D0FCF5
:10467C0033680246DB686946304698470446204654
:10468C000DB0F0BD10B5054B0446112240F8043BAB
:10469C00002100F035FC204610BD00BFC4500B00BB
:1046AC000346074A10B543F8042B01F1100251F8E8
:1046BC00044B43F8044B9142F9D10A781A7010BD9F
:1046CC00C4500B0010B59DF8084044EA032343EA9C
:1046DC00024242EA016104234160037510BD0000EF
:1046EC0007B5064B0360CB7800938B784A78097832
:1046FC00FFF7E8FF03B05DF804FB00BFC4500B00EC
:10470C00014B024A1A607047C4E60320D0500B00DC
:10471C00002340681A46FFF76BBE40680022022156
:10472C00FFF776BE002240681146FFF769BE0022F3
:10473C0040681146FFF774BE002340681A461946BC
:10474C00FFF776BE002340681A461946FFF778BE7D
:10475C0040680021FFF79CBE40680021FFF7A0BE17
:10476C004068002281F00101FFF772BE4068002210
:10477C00FFF77EBE002240681146FFF781BE002283
:10478C0040681146FFF76CBE2DE9F04395B0144616
:10479C000D460746FFF776FF00211C220DA800915D
:1047AC0000F0AEFB40230C9320466B460CAA002174
:1047BC00FFF762FD044600284BD1024601216868D0
:1047CC00FFF72EFE0221804622466868FFF728FE7E
:1047DC00009E81462146002E3BD0002939D17368BA
:1047EC00022B03D00A2B11D0F669F4E7B8F1000FB5
:1047FC00FAD0716906A8043107ADFFF771FF0FCD30
:10480C003C1D0FC42B6823704146EDE7B9F1000F36
:10481C00EAD07469102201A800F072FB06238DF80F
:10482C00143001AD04F108031834186859682A468D
:10483C0003C20833A3421546F7D101A906A807AD58
:10484C00FFF72EFF0FCD3C1D0FC42B68237049467C
:10485C00CAE70098FFF708FD384615B0BDE8F083AD
:10486C00024B034A1A6000225A607047C8E60320C4
:10487C00DC500B00F8B506460D468F180024BD42DF
:10488C000CD0336815F8011B9B6830469847031E03
:10489C0001DB1C44F3E7002C08BF1C462046F8BD86
:1048AC0013B50446084659B10191FFF7B1FB2368D3
:1048BC000199DB680246204602B0BDE8104018475B
:1048CC0002B010BD03689B68184738B50D2105462A
:1048DC00FFF7F8FF0A2104462846FFF7F3FF2044B0
:1048EC0038BD30B58BB00023012A8DF8243098BF29
:1048FC000A2209AC0D46B1FBF2F101FB125303F095
:10490C00FF03092B94BF30333733DBB2AA4204F8D0
:10491C00013DEFD92146FFF7C3FF0BB030BD0000BE
:10492C00014B00229A607047D0E6032010B5044674
:10493C0008462170FFF7A8FC00236360204610BDD9
:10494C00054B02221A60054B054A9A600020C3E908
:10495C000000FFF721BD00BFECE60320E0E60320DA
:10496C000000FFFF024B1A68024B1A60704700BF31
:10497C0040E60320F0E6032070474174704708B509
:10498C00007CFFF7C1FC20EAE07008BD08B5007C94
:10499C00FFF792FC20EAE07008BD08B5007CFFF739
:1049AC009BFC40EAE07008BD08B5007CFFF78CFC6E
:1049BC0040EAE07008BD007CFFF796BC37B5457C3B
:1049CC0004462DB1207C03B0BDE83040FFF76CBC31
:1049DC00007C0191FFF798FC00280199F2DC284635
:1049EC0003B030BD10B514210446FFF756FB20462A
:1049FC0010BD000010B54FF47A73044608461146FA
:104A0C000022C4E90123044B236001232074637446
:104A1C00FFF78AFC204610BD34510B00007C0023AC
:104A2C00FFF77ABC0022FFF7F9BF4174704770475B
:104A3C00704708B50021007CFFF796FC40EAE07057
:104A4C0008BD08B50121007CFFF78EFC40EAE07040
:104A5C0008BD08B5007CFFF77FFC20EAE07008BDBC
:104A6C0008B5007CFFF770FC20EAE07008BD13B5B8
:104A7C000446007C0191FFF76FFC0028019901DCD2
:104A8C00607C20B1207CFFF777FC20EAE07002B05C
:104A9C0010BD007CFFF778BC10B514210446FFF75D
:104AAC00FCFA204610BD000010B54FF47A73044692
:104ABC0008460021C4E90113044B23600123207430
:104ACC0063741146FFF738FC204610BD64510B008F
:104ADC0010B514220446002100F012FA204610BD35
:104AEC0010B50F4C88B003A8FFF7F2FF2178BFF385
:104AFC005B8F11F001010FD120460191FFF7CFFA26
:104B0C00019948B103AA0748FFF7CEFF2046FFF7EB
:104B1C00CBFA054800F0E0F9024808B010BD00BF20
:104B2C00F4E60320F8E603203B4A0B000022406821
:104B3C001146FFF775BC002240681146FFF790BC88
:104B4C00002240681146FFF79BBC40680022FFF72B
:104B5C008FBC4068002281F00101FFF779BC002373
:104B6C0040681A461946FFF76BBC002340681A468A
:104B7C001946FFF75DBC002240681146FFF740BCA8
:104B8C00406800220221FFF743BC002340681A460C
:104B9C00FFF72EBC024B04225A60024A1A6070477F
:104BAC000CE7032094510B00014B1860704700BFB9
:104BBC0044E6032008B50B4B43B1FFF791FF0368A4
:104BCC001B699847002801DDAFF30080064B43B109
:104BDC0000F05CF903681B699847002801DDAFF30E
:104BEC00008008BD000000000000000008B5FFF7C1
:104BFC00E1FFFFF7D1FA014B186008BD28E703204D
:104C0C000548064A064908B5121A00F06BF9054B1F
:104C1C00054A1A6008BD00BF00F4032004F4032009
:104C2C00F0520B0000F403201E1C279A07B500233A
:104C3C0000931A466FF07701FFF7C8FB03B05DF8DD
:104C4C0004FB000007B543880A2B08D0502B0BD16E
:104C5C00094B1B684BB103B05DF804EB1847FFF729
:104C6C00E5FF03B05DF804FB002300931A466FF0D8
:104C7C007701FFF7ABFBF4E718E7032010B51248F8
:104C8C000021FFF72DFC114B1A68114B9A42114B66
:104C9C000CBF012200221A7001D0FFF7B1FFFFF701
:104CAC0073FA044600F034F90B4B13B12046AFF302
:104CBC00008000210848FFF793FBBDE8104007482F
:104CCC000021FFF779BB00BFB54B0B0000F40320AC
:104CDC001E1C279A14E7032000000000514C0B0007
:104CEC00232813B502D9002002B010BDA0F10B038C
:104CFC00022B1AD8174C2178BFF35B8F11F00101EE
:104D0C000BD120460191FFF7CAF9019928B112483D
:104D1C00FFF70CFE2046FFF7C7F90F4B1878FFF78B
:104D2C00BBFA0028DFD10120DEE7012809D800F00A
:104D3C006DF80021007CFFF77FFA80F00100C0B213
:104D4C00D2E709380128EED800F0A0F8007CFFF774
:104D5C00D3FAF2E71CE7032020E70320232838B519
:104D6C0004460D460AD8FF2908D0FFF7B9FF28B131
:104D7C0029462046BDE83840FFF716BA38BD38B58D
:104D8C0004460D46FFF718FAFF2810D0062804D861
:104D9C004D2323FA00F0C30709D42046FFF7A0FFE8
:104DAC0028B129462046BDE83840FFF70DBA38BD7A
:104DBC0010B50446FFF700FA031FDBB2012B08D92C
:104DCC002046FFF78DFF20B12046BDE81040FFF7CD
:104DDC0003BA002010BD704738B50A4B036001239D
:104DEC00044643610849202000F074F820256060D7
:104DFC000549A560284600F06DF8C4E90305204676
:104E0C0038BD00BF18000100C8510B0030B50E4D65
:104E1C002978BFF35B8F11F0010487B011D12846BC
:104E2C00FFF73DF968B16846FFF7D6FF6A462146A1
:104E3C000648FFF7CFFB2846FFF736F9044800F089
:104E4C004BF8024807B030BD2CE7032030E70320B5
:104E5C00E34D0B007047000038B5044614252A4674
:104E6C00002100F04DF82580402507492581284672
:104E7C00258200F02FF804496060284600F02AF8DB
:104E8C00E060204638BD00BFC8510B0030B50E4D58
:104E9C002978BFF35B8F11F0010487B011D128463C
:104EAC00FFF7FDF868B101A8FFF7D6FF01AA21466C
:104EBC000648FFF79FFD2846FFF7F6F8044800F078
:104ECC000BF8024807B030BD44E7032048E7032045
:104EDC00614E0B00FFF7DFB8002301461A46184657
:104EEC0000F044B80A44914200F1FF3300D17047FE
:104EFC0010B511F8014B03F8014F9142F9D110BDD7
:104F0C0002440346934200D1704703F8011BF9E7B2
:104F1C0038B5104B1D68AB6B0446B3B91820FFF7BE
:104F2C00C7FA0246A86320B90B4B0C484221FFF785
:104F3C00CFFA0B490B4BC0E900130B4B83600B23CF
:104F4C00838100210120C2E90401AB6B00221C61AA
:104F5C005A6138BD44E60320C9510B00E0510B00E7
:104F6C000E33CDAB34126DE6ECDE05002DE9F843C3
:104F7C00DFF8B8800646D8F800001F460D4691466B
:104F8C0000F056F8254B1C6834B9254C1C60254B99
:104F9C0013B11B68C4F8883063681F2B07DDD8F881
:104FAC00000000F047F84FF0FF30BDE8F8834EB337
:104FBC00D4F8880088B91C4B23B9D8F8000000F04D
:104FCC0038F8F0E74FF48470FFF772FA0028F4D049
:104FDC000023C0E94033C4F88800636840F823908C
:104FEC0001229A4000EB8301D0F800311343C0F842
:104FFC000031022EC1F8807002BFD0F80431134387
:10500C00C0F804316368D8F800005A1C023362609F
:10501C0044F8235000F00EF80020C6E7E8E7032020
:10502C005CE7032000000000BD440B00A8E6032051
:10503C0070477047704700002D400B0069400B0013
:10504C0091400B0095400B00000000000000000098
:10505C00000000006B450B0061450B0057450B0031
:10506C004D450B0041450B0035450B005D470B00D2
:10507C0065470B0029450B0021450B0017450B001C
:10508C000D450B0095470B000000000000000000D0
:10509C0089450B00D3450B00AB450B008B450B0032
:1050AC00B3450B00BB450B00C3450B00CB450B00B8
:1050BC0000000000000000002D460B001D460B00F8
:1050CC001F460B0061707000000000000000000023
:1050DC001D470B0027470B0031470B003B470B00CC
:1050EC0045470B0051470B005D470B0065470B0014
:1050FC006D470B0079470B0081470B008B470B006A
:10510C0095470B0025592D256D2D25645425483ABE
:10511C00254D3A2553257A0061736374696D6500DA
:10512C00000000000000000085490B00F1490B0055
:10513C00C9490B0081480B0099490B00B5490B007C
:10514C00A7490B00C3490B0087490B008B490B0087
:10515C0000000000000000003D4A0B00A54A0B00B7
:10516C007B4A0B0081480B006D4A0B003F4A0B0039
:10517C004F4A0B009F4A0B005F4A0B00374A0B004B
:10518C000000000000000000974B0B008D4B0B0043
:10519C00834B0B00394B0B00774B0B006B4B0B000D
:1051AC005D470B0065470B005F4B0B00574B0B002B
:1051BC004D4B0B00434B0B0095470B0000524545E4
:1051CC004E54206D616C6C6F632073756363656501
:1051DC00646564002F746D702F6A656E6B696E73F5
:1051EC002D4743432D31302D706970656C696E65A8
:1051FC002D34385F32303230313132345F31363029
:10520C00363138303633392F7372632F6E65776CC5
:10521C0069622F6E65776C69622F6C6962632F739C
:10522C0074646C69622F72616E642E6300000000FE
:10523C005D410B00FD440B0075450B000D470B0049
:10524C006D480B002D490B004D490B0071490B00AB
:04525C00A14B0B0057
:10526000040000001400000003000000474E550039
:105270001848EFEB490A98254D85976F3014CF7287
:045280007430CD15A4
:1052840024510B0048E60320000000000000000049
:10529400000000000000000000000000000000000A
:1052A40000000000000000000000000000000000FA
:1052B40000000000000000000000000000000000EA
:1052C40000000000000000000000000000000000DA
:1052D40000000000000000000000000000000000CA
:0C52E4000000000000000000ECE70320C8
:0452F00000000000BA
:1052FA0000000102030405060708090A0B0C0D0E3B
:10530A000F101112131415161718191A1B1C1D1E2B
:04531A001F20280028
:04531E007856341277
:04000003B000401CED
:00000001FF
